{
  "_format": "hh-sol-artifact-1",
  "contractName": "MintableNFT",
  "sourceName": "contracts/MintableNFT.sol",
  "abi": [
    {
      "inputs": [
        {
          "internalType": "string",
          "name": "name",
          "type": "string"
        },
        {
          "internalType": "string",
          "name": "symbol",
          "type": "string"
        }
      ],
      "stateMutability": "nonpayable",
      "type": "constructor"
    },
    {
      "anonymous": false,
      "inputs": [
        {
          "indexed": true,
          "internalType": "address",
          "name": "owner",
          "type": "address"
        },
        {
          "indexed": true,
          "internalType": "address",
          "name": "approved",
          "type": "address"
        },
        {
          "indexed": true,
          "internalType": "uint256",
          "name": "tokenId",
          "type": "uint256"
        }
      ],
      "name": "Approval",
      "type": "event"
    },
    {
      "anonymous": false,
      "inputs": [
        {
          "indexed": true,
          "internalType": "address",
          "name": "owner",
          "type": "address"
        },
        {
          "indexed": true,
          "internalType": "address",
          "name": "operator",
          "type": "address"
        },
        {
          "indexed": false,
          "internalType": "bool",
          "name": "approved",
          "type": "bool"
        }
      ],
      "name": "ApprovalForAll",
      "type": "event"
    },
    {
      "anonymous": false,
      "inputs": [
        {
          "indexed": true,
          "internalType": "address",
          "name": "previousOwner",
          "type": "address"
        },
        {
          "indexed": true,
          "internalType": "address",
          "name": "newOwner",
          "type": "address"
        }
      ],
      "name": "OwnershipTransferred",
      "type": "event"
    },
    {
      "anonymous": false,
      "inputs": [
        {
          "indexed": true,
          "internalType": "address",
          "name": "from",
          "type": "address"
        },
        {
          "indexed": true,
          "internalType": "address",
          "name": "to",
          "type": "address"
        },
        {
          "indexed": true,
          "internalType": "uint256",
          "name": "tokenId",
          "type": "uint256"
        }
      ],
      "name": "Transfer",
      "type": "event"
    },
    {
      "inputs": [
        {
          "internalType": "address",
          "name": "to",
          "type": "address"
        },
        {
          "internalType": "uint256",
          "name": "tokenId",
          "type": "uint256"
        }
      ],
      "name": "approve",
      "outputs": [],
      "stateMutability": "nonpayable",
      "type": "function"
    },
    {
      "inputs": [
        {
          "internalType": "address",
          "name": "owner",
          "type": "address"
        }
      ],
      "name": "balanceOf",
      "outputs": [
        {
          "internalType": "uint256",
          "name": "",
          "type": "uint256"
        }
      ],
      "stateMutability": "view",
      "type": "function"
    },
    {
      "inputs": [
        {
          "internalType": "uint256",
          "name": "tokenId",
          "type": "uint256"
        }
      ],
      "name": "getApproved",
      "outputs": [
        {
          "internalType": "address",
          "name": "",
          "type": "address"
        }
      ],
      "stateMutability": "view",
      "type": "function"
    },
    {
      "inputs": [
        {
          "internalType": "address",
          "name": "owner",
          "type": "address"
        }
      ],
      "name": "getTokensOfOwner",
      "outputs": [
        {
          "internalType": "uint256[]",
          "name": "",
          "type": "uint256[]"
        }
      ],
      "stateMutability": "view",
      "type": "function"
    },
    {
      "inputs": [
        {
          "internalType": "address",
          "name": "owner",
          "type": "address"
        },
        {
          "internalType": "address",
          "name": "operator",
          "type": "address"
        }
      ],
      "name": "isApprovedForAll",
      "outputs": [
        {
          "internalType": "bool",
          "name": "",
          "type": "bool"
        }
      ],
      "stateMutability": "view",
      "type": "function"
    },
    {
      "inputs": [
        {
          "internalType": "address",
          "name": "to",
          "type": "address"
        }
      ],
      "name": "mint",
      "outputs": [],
      "stateMutability": "nonpayable",
      "type": "function"
    },
    {
      "inputs": [],
      "name": "name",
      "outputs": [
        {
          "internalType": "string",
          "name": "",
          "type": "string"
        }
      ],
      "stateMutability": "view",
      "type": "function"
    },
    {
      "inputs": [],
      "name": "owner",
      "outputs": [
        {
          "internalType": "address",
          "name": "",
          "type": "address"
        }
      ],
      "stateMutability": "view",
      "type": "function"
    },
    {
      "inputs": [
        {
          "internalType": "uint256",
          "name": "tokenId",
          "type": "uint256"
        }
      ],
      "name": "ownerOf",
      "outputs": [
        {
          "internalType": "address",
          "name": "",
          "type": "address"
        }
      ],
      "stateMutability": "view",
      "type": "function"
    },
    {
      "inputs": [],
      "name": "renounceOwnership",
      "outputs": [],
      "stateMutability": "nonpayable",
      "type": "function"
    },
    {
      "inputs": [
        {
          "internalType": "address",
          "name": "from",
          "type": "address"
        },
        {
          "internalType": "address",
          "name": "to",
          "type": "address"
        },
        {
          "internalType": "uint256",
          "name": "tokenId",
          "type": "uint256"
        }
      ],
      "name": "safeTransferFrom",
      "outputs": [],
      "stateMutability": "nonpayable",
      "type": "function"
    },
    {
      "inputs": [
        {
          "internalType": "address",
          "name": "from",
          "type": "address"
        },
        {
          "internalType": "address",
          "name": "to",
          "type": "address"
        },
        {
          "internalType": "uint256",
          "name": "tokenId",
          "type": "uint256"
        },
        {
          "internalType": "bytes",
          "name": "data",
          "type": "bytes"
        }
      ],
      "name": "safeTransferFrom",
      "outputs": [],
      "stateMutability": "nonpayable",
      "type": "function"
    },
    {
      "inputs": [
        {
          "internalType": "address",
          "name": "operator",
          "type": "address"
        },
        {
          "internalType": "bool",
          "name": "approved",
          "type": "bool"
        }
      ],
      "name": "setApprovalForAll",
      "outputs": [],
      "stateMutability": "nonpayable",
      "type": "function"
    },
    {
      "inputs": [
        {
          "internalType": "string",
          "name": "baseURI_",
          "type": "string"
        }
      ],
      "name": "setBaseURI",
      "outputs": [],
      "stateMutability": "nonpayable",
      "type": "function"
    },
    {
      "inputs": [
        {
          "internalType": "bytes4",
          "name": "interfaceId",
          "type": "bytes4"
        }
      ],
      "name": "supportsInterface",
      "outputs": [
        {
          "internalType": "bool",
          "name": "",
          "type": "bool"
        }
      ],
      "stateMutability": "view",
      "type": "function"
    },
    {
      "inputs": [],
      "name": "symbol",
      "outputs": [
        {
          "internalType": "string",
          "name": "",
          "type": "string"
        }
      ],
      "stateMutability": "view",
      "type": "function"
    },
    {
      "inputs": [
        {
          "internalType": "uint256",
          "name": "index",
          "type": "uint256"
        }
      ],
      "name": "tokenByIndex",
      "outputs": [
        {
          "internalType": "uint256",
          "name": "",
          "type": "uint256"
        }
      ],
      "stateMutability": "view",
      "type": "function"
    },
    {
      "inputs": [
        {
          "internalType": "address",
          "name": "owner",
          "type": "address"
        },
        {
          "internalType": "uint256",
          "name": "index",
          "type": "uint256"
        }
      ],
      "name": "tokenOfOwnerByIndex",
      "outputs": [
        {
          "internalType": "uint256",
          "name": "",
          "type": "uint256"
        }
      ],
      "stateMutability": "view",
      "type": "function"
    },
    {
      "inputs": [
        {
          "internalType": "uint256",
          "name": "tokenId",
          "type": "uint256"
        }
      ],
      "name": "tokenURI",
      "outputs": [
        {
          "internalType": "string",
          "name": "",
          "type": "string"
        }
      ],
      "stateMutability": "view",
      "type": "function"
    },
    {
      "inputs": [],
      "name": "totalSupply",
      "outputs": [
        {
          "internalType": "uint256",
          "name": "",
          "type": "uint256"
        }
      ],
      "stateMutability": "view",
      "type": "function"
    },
    {
      "inputs": [
        {
          "internalType": "address",
          "name": "from",
          "type": "address"
        },
        {
          "internalType": "address",
          "name": "to",
          "type": "address"
        },
        {
          "internalType": "uint256",
          "name": "tokenId",
          "type": "uint256"
        }
      ],
      "name": "transferFrom",
      "outputs": [],
      "stateMutability": "nonpayable",
      "type": "function"
    },
    {
      "inputs": [
        {
          "internalType": "address",
          "name": "newOwner",
          "type": "address"
        }
      ],
      "name": "transferOwnership",
      "outputs": [],
      "stateMutability": "nonpayable",
      "type": "function"
    }
  ],
  "bytecode": "0x60806040526000600d553480156200001657600080fd5b5060405162003dba38038062003dba83398181016040528101906200003c919062000292565b818181600090805190602001906200005692919062000170565b5080600190805190602001906200006f92919062000170565b5050506200009262000086620000a260201b60201c565b620000aa60201b60201c565b6001600b81905550505062000475565b600033905090565b6000600a60009054906101000a900473ffffffffffffffffffffffffffffffffffffffff16905081600a60006101000a81548173ffffffffffffffffffffffffffffffffffffffff021916908373ffffffffffffffffffffffffffffffffffffffff1602179055508173ffffffffffffffffffffffffffffffffffffffff168173ffffffffffffffffffffffffffffffffffffffff167f8be0079c531659141344cd1fd0a4f28419497f9722a3daafe3b4186f6b6457e060405160405180910390a35050565b8280546200017e906200039a565b90600052602060002090601f016020900481019282620001a25760008555620001ee565b82601f10620001bd57805160ff1916838001178555620001ee565b82800160010185558215620001ee579182015b82811115620001ed578251825591602001919060010190620001d0565b5b509050620001fd919062000201565b5090565b5b808211156200021c57600081600090555060010162000202565b5090565b60006200023762000231846200032e565b62000305565b9050828152602081018484840111156200025057600080fd5b6200025d84828562000364565b509392505050565b600082601f8301126200027757600080fd5b81516200028984826020860162000220565b91505092915050565b60008060408385031215620002a657600080fd5b600083015167ffffffffffffffff811115620002c157600080fd5b620002cf8582860162000265565b925050602083015167ffffffffffffffff811115620002ed57600080fd5b620002fb8582860162000265565b9150509250929050565b60006200031162000324565b90506200031f8282620003d0565b919050565b6000604051905090565b600067ffffffffffffffff8211156200034c576200034b62000435565b5b620003578262000464565b9050602081019050919050565b60005b838110156200038457808201518184015260208101905062000367565b8381111562000394576000848401525b50505050565b60006002820490506001821680620003b357607f821691505b60208210811415620003ca57620003c962000406565b5b50919050565b620003db8262000464565b810181811067ffffffffffffffff82111715620003fd57620003fc62000435565b5b80604052505050565b7f4e487b7100000000000000000000000000000000000000000000000000000000600052602260045260246000fd5b7f4e487b7100000000000000000000000000000000000000000000000000000000600052604160045260246000fd5b6000601f19601f8301169050919050565b61393580620004856000396000f3fe608060405234801561001057600080fd5b50600436106101425760003560e01c80636352211e116100b857806395d89b411161007c57806395d89b4114610387578063a22cb465146103a5578063b88d4fde146103c1578063c87b56dd146103dd578063e985e9c51461040d578063f2fde38b1461043d57610142565b80636352211e146102e35780636a6278421461031357806370a082311461032f578063715018a61461035f5780638da5cb5b1461036957610142565b806323b872dd1161010a57806323b872dd146101ff5780632f745c591461021b57806342842e0e1461024b5780634f6ccce71461026757806355f804b3146102975780635de6dc55146102b357610142565b806301ffc9a71461014757806306fdde0314610177578063081812fc14610195578063095ea7b3146101c557806318160ddd146101e1575b600080fd5b610161600480360381019061015c91906128f6565b610459565b60405161016e9190612e2a565b60405180910390f35b61017f6104d3565b60405161018c9190612e45565b60405180910390f35b6101af60048036038101906101aa9190612989565b610565565b6040516101bc9190612da1565b60405180910390f35b6101df60048036038101906101da91906128ba565b6105ab565b005b6101e96106c3565b6040516101f691906130a7565b60405180910390f35b610219600480360381019061021491906127b4565b6106d0565b005b610235600480360381019061023091906128ba565b610730565b60405161024291906130a7565b60405180910390f35b610265600480360381019061026091906127b4565b6107d5565b005b610281600480360381019061027c9190612989565b6107f5565b60405161028e91906130a7565b60405180910390f35b6102b160048036038101906102ac9190612948565b61088c565b005b6102cd60048036038101906102c8919061274f565b6108ae565b6040516102da9190612e08565b60405180910390f35b6102fd60048036038101906102f89190612989565b610a2a565b60405161030a9190612da1565b60405180910390f35b61032d6004803603810190610328919061274f565b610ab1565b005b6103496004803603810190610344919061274f565b610b20565b60405161035691906130a7565b60405180910390f35b610367610bd8565b005b610371610bec565b60405161037e9190612da1565b60405180910390f35b61038f610c16565b60405161039c9190612e45565b60405180910390f35b6103bf60048036038101906103ba919061287e565b610ca8565b005b6103db60048036038101906103d69190612803565b610cbe565b005b6103f760048036038101906103f29190612989565b610d20565b6040516104049190612e45565b60405180910390f35b61042760048036038101906104229190612778565b610dc7565b6040516104349190612e2a565b60405180910390f35b6104576004803603810190610452919061274f565b610e5b565b005b60007f780e9d63000000000000000000000000000000000000000000000000000000007bffffffffffffffffffffffffffffffffffffffffffffffffffffffff1916827bffffffffffffffffffffffffffffffffffffffffffffffffffffffff191614806104cc57506104cb82610edf565b5b9050919050565b6060600080546104e2906132af565b80601f016020809104026020016040519081016040528092919081815260200182805461050e906132af565b801561055b5780601f106105305761010080835404028352916020019161055b565b820191906000526020600020905b81548152906001019060200180831161053e57829003601f168201915b5050505050905090565b600061057082610fc1565b6004600083815260200190815260200160002060009054906101000a900473ffffffffffffffffffffffffffffffffffffffff169050919050565b60006105b682610a2a565b90508073ffffffffffffffffffffffffffffffffffffffff168373ffffffffffffffffffffffffffffffffffffffff161415610627576040517f08c379a000000000000000000000000000000000000000000000000000000000815260040161061e90613007565b60405180910390fd5b8073ffffffffffffffffffffffffffffffffffffffff1661064661100c565b73ffffffffffffffffffffffffffffffffffffffff16148061067557506106748161066f61100c565b610dc7565b5b6106b4576040517f08c379a00000000000000000000000000000000000000000000000000000000081526004016106ab90613027565b60405180910390fd5b6106be8383611014565b505050565b6000600880549050905090565b6106e16106db61100c565b826110cd565b610720576040517f08c379a000000000000000000000000000000000000000000000000000000000815260040161071790612e67565b60405180910390fd5b61072b838383611162565b505050565b600061073b83610b20565b821061077c576040517f08c379a000000000000000000000000000000000000000000000000000000000815260040161077390612e87565b60405180910390fd5b600660008473ffffffffffffffffffffffffffffffffffffffff1673ffffffffffffffffffffffffffffffffffffffff168152602001908152602001600020600083815260200190815260200160002054905092915050565b6107f083838360405180602001604052806000815250610cbe565b505050565b60006107ff6106c3565b8210610840576040517f08c379a000000000000000000000000000000000000000000000000000000000815260040161083790613067565b60405180910390fd5b6008828154811061087a577f4e487b7100000000000000000000000000000000000000000000000000000000600052603260045260246000fd5b90600052602060002001549050919050565b61089461145c565b80600c90805190602001906108aa929190612573565b5050565b606060006108bb83610b20565b9050600081141561093e57600067ffffffffffffffff811115610907577f4e487b7100000000000000000000000000000000000000000000000000000000600052604160045260246000fd5b6040519080825280602002602001820160405280156109355781602001602082028036833780820191505090505b50915050610a25565b60008167ffffffffffffffff811115610980577f4e487b7100000000000000000000000000000000000000000000000000000000600052604160045260246000fd5b6040519080825280602002602001820160405280156109ae5781602001602082028036833780820191505090505b50905060005b82811015610a1e576109c68582610730565b8282815181106109ff577f4e487b7100000000000000000000000000000000000000000000000000000000600052603260045260246000fd5b6020026020010181815250508080610a1690613312565b9150506109b4565b5080925050505b919050565b600080610a36836114da565b9050600073ffffffffffffffffffffffffffffffffffffffff168173ffffffffffffffffffffffffffffffffffffffff161415610aa8576040517f08c379a0000000000000000000000000000000000000000000000000000000008152600401610a9f90612fe7565b60405180910390fd5b80915050919050565b610ab961145c565b612710600d5410610aff576040517f08c379a0000000000000000000000000000000000000000000000000000000008152600401610af690613047565b60405180910390fd5b610b1d81600d60008154610b1290613312565b919050819055611517565b50565b60008073ffffffffffffffffffffffffffffffffffffffff168273ffffffffffffffffffffffffffffffffffffffff161415610b91576040517f08c379a0000000000000000000000000000000000000000000000000000000008152600401610b8890612f67565b60405180910390fd5b600360008373ffffffffffffffffffffffffffffffffffffffff1673ffffffffffffffffffffffffffffffffffffffff168152602001908152602001600020549050919050565b610be061145c565b610bea6000611535565b565b6000600a60009054906101000a900473ffffffffffffffffffffffffffffffffffffffff16905090565b606060018054610c25906132af565b80601f0160208091040260200160405190810160405280929190818152602001828054610c51906132af565b8015610c9e5780601f10610c7357610100808354040283529160200191610c9e565b820191906000526020600020905b815481529060010190602001808311610c8157829003601f168201915b5050505050905090565b610cba610cb361100c565b83836115fb565b5050565b610ccf610cc961100c565b836110cd565b610d0e576040517f08c379a0000000000000000000000000000000000000000000000000000000008152600401610d0590612e67565b60405180910390fd5b610d1a84848484611768565b50505050565b6060610d2b826117c4565b610d6a576040517f08c379a0000000000000000000000000000000000000000000000000000000008152600401610d6190612fc7565b60405180910390fd5b6000610d74611805565b90506000815111610d945760405180602001604052806000815250610dbf565b80610d9e84611897565b604051602001610daf929190612d7d565b6040516020818303038152906040525b915050919050565b6000600560008473ffffffffffffffffffffffffffffffffffffffff1673ffffffffffffffffffffffffffffffffffffffff16815260200190815260200160002060008373ffffffffffffffffffffffffffffffffffffffff1673ffffffffffffffffffffffffffffffffffffffff16815260200190815260200160002060009054906101000a900460ff16905092915050565b610e6361145c565b600073ffffffffffffffffffffffffffffffffffffffff168173ffffffffffffffffffffffffffffffffffffffff161415610ed3576040517f08c379a0000000000000000000000000000000000000000000000000000000008152600401610eca90612ec7565b60405180910390fd5b610edc81611535565b50565b60007f80ac58cd000000000000000000000000000000000000000000000000000000007bffffffffffffffffffffffffffffffffffffffffffffffffffffffff1916827bffffffffffffffffffffffffffffffffffffffffffffffffffffffff19161480610faa57507f5b5e139f000000000000000000000000000000000000000000000000000000007bffffffffffffffffffffffffffffffffffffffffffffffffffffffff1916827bffffffffffffffffffffffffffffffffffffffffffffffffffffffff1916145b80610fba5750610fb9826119bb565b5b9050919050565b610fca816117c4565b611009576040517f08c379a000000000000000000000000000000000000000000000000000000000815260040161100090612fe7565b60405180910390fd5b50565b600033905090565b816004600083815260200190815260200160002060006101000a81548173ffffffffffffffffffffffffffffffffffffffff021916908373ffffffffffffffffffffffffffffffffffffffff160217905550808273ffffffffffffffffffffffffffffffffffffffff1661108783610a2a565b73ffffffffffffffffffffffffffffffffffffffff167f8c5be1e5ebec7d5bd14f71427d1e84f3dd0314c0f7b2291e5b200ac8c7c3b92560405160405180910390a45050565b6000806110d983610a2a565b90508073ffffffffffffffffffffffffffffffffffffffff168473ffffffffffffffffffffffffffffffffffffffff16148061111b575061111a8185610dc7565b5b8061115957508373ffffffffffffffffffffffffffffffffffffffff1661114184610565565b73ffffffffffffffffffffffffffffffffffffffff16145b91505092915050565b8273ffffffffffffffffffffffffffffffffffffffff1661118282610a2a565b73ffffffffffffffffffffffffffffffffffffffff16146111d8576040517f08c379a00000000000000000000000000000000000000000000000000000000081526004016111cf90612ee7565b60405180910390fd5b600073ffffffffffffffffffffffffffffffffffffffff168273ffffffffffffffffffffffffffffffffffffffff161415611248576040517f08c379a000000000000000000000000000000000000000000000000000000000815260040161123f90612f27565b60405180910390fd5b6112558383836001611a25565b8273ffffffffffffffffffffffffffffffffffffffff1661127582610a2a565b73ffffffffffffffffffffffffffffffffffffffff16146112cb576040517f08c379a00000000000000000000000000000000000000000000000000000000081526004016112c290612ee7565b60405180910390fd5b6004600082815260200190815260200160002060006101000a81549073ffffffffffffffffffffffffffffffffffffffff02191690556001600360008573ffffffffffffffffffffffffffffffffffffffff1673ffffffffffffffffffffffffffffffffffffffff168152602001908152602001600020600082825403925050819055506001600360008473ffffffffffffffffffffffffffffffffffffffff1673ffffffffffffffffffffffffffffffffffffffff16815260200190815260200160002060008282540192505081905550816002600083815260200190815260200160002060006101000a81548173ffffffffffffffffffffffffffffffffffffffff021916908373ffffffffffffffffffffffffffffffffffffffff160217905550808273ffffffffffffffffffffffffffffffffffffffff168473ffffffffffffffffffffffffffffffffffffffff167fddf252ad1be2c89b69c2b068fc378daa952ba7f163c4a11628f55a4df523b3ef60405160405180910390a46114578383836001611b85565b505050565b61146461100c565b73ffffffffffffffffffffffffffffffffffffffff16611482610bec565b73ffffffffffffffffffffffffffffffffffffffff16146114d8576040517f08c379a00000000000000000000000000000000000000000000000000000000081526004016114cf90612fa7565b60405180910390fd5b565b60006002600083815260200190815260200160002060009054906101000a900473ffffffffffffffffffffffffffffffffffffffff169050919050565b611531828260405180602001604052806000815250611b8b565b5050565b6000600a60009054906101000a900473ffffffffffffffffffffffffffffffffffffffff16905081600a60006101000a81548173ffffffffffffffffffffffffffffffffffffffff021916908373ffffffffffffffffffffffffffffffffffffffff1602179055508173ffffffffffffffffffffffffffffffffffffffff168173ffffffffffffffffffffffffffffffffffffffff167f8be0079c531659141344cd1fd0a4f28419497f9722a3daafe3b4186f6b6457e060405160405180910390a35050565b8173ffffffffffffffffffffffffffffffffffffffff168373ffffffffffffffffffffffffffffffffffffffff16141561166a576040517f08c379a000000000000000000000000000000000000000000000000000000000815260040161166190612f47565b60405180910390fd5b80600560008573ffffffffffffffffffffffffffffffffffffffff1673ffffffffffffffffffffffffffffffffffffffff16815260200190815260200160002060008473ffffffffffffffffffffffffffffffffffffffff1673ffffffffffffffffffffffffffffffffffffffff16815260200190815260200160002060006101000a81548160ff0219169083151502179055508173ffffffffffffffffffffffffffffffffffffffff168373ffffffffffffffffffffffffffffffffffffffff167f17307eab39ab6107e8899845ad3d59bd9653f200f220920489ca2b5937696c318360405161175b9190612e2a565b60405180910390a3505050565b611773848484611162565b61177f84848484611be6565b6117be576040517f08c379a00000000000000000000000000000000000000000000000000000000081526004016117b590612ea7565b60405180910390fd5b50505050565b60008073ffffffffffffffffffffffffffffffffffffffff166117e6836114da565b73ffffffffffffffffffffffffffffffffffffffff1614159050919050565b6060600c8054611814906132af565b80601f0160208091040260200160405190810160405280929190818152602001828054611840906132af565b801561188d5780601f106118625761010080835404028352916020019161188d565b820191906000526020600020905b81548152906001019060200180831161187057829003601f168201915b5050505050905090565b6060600060016118a684611d7d565b01905060008167ffffffffffffffff8111156118eb577f4e487b7100000000000000000000000000000000000000000000000000000000600052604160045260246000fd5b6040519080825280601f01601f19166020018201604052801561191d5781602001600182028036833780820191505090505b509050600082602001820190505b6001156119b0578080600190039150507f3031323334353637383961626364656600000000000000000000000000000000600a86061a8153600a858161199a577f4e487b7100000000000000000000000000000000000000000000000000000000600052601260045260246000fd5b04945060008514156119ab576119b0565b61192b565b819350505050919050565b60007f01ffc9a7000000000000000000000000000000000000000000000000000000007bffffffffffffffffffffffffffffffffffffffffffffffffffffffff1916827bffffffffffffffffffffffffffffffffffffffffffffffffffffffff1916149050919050565b611a3184848484611fb4565b6001811115611a75576040517f08c379a0000000000000000000000000000000000000000000000000000000008152600401611a6c90613087565b60405180910390fd5b6000829050600073ffffffffffffffffffffffffffffffffffffffff168573ffffffffffffffffffffffffffffffffffffffff161415611abd57611ab881611fba565b611afc565b8373ffffffffffffffffffffffffffffffffffffffff168573ffffffffffffffffffffffffffffffffffffffff1614611afb57611afa8582612003565b5b5b600073ffffffffffffffffffffffffffffffffffffffff168473ffffffffffffffffffffffffffffffffffffffff161415611b3f57611b3a81612170565b611b7e565b8473ffffffffffffffffffffffffffffffffffffffff168473ffffffffffffffffffffffffffffffffffffffff1614611b7d57611b7c84826122b3565b5b5b5050505050565b50505050565b611b958383612332565b611ba26000848484611be6565b611be1576040517f08c379a0000000000000000000000000000000000000000000000000000000008152600401611bd890612ea7565b60405180910390fd5b505050565b6000611c078473ffffffffffffffffffffffffffffffffffffffff16612550565b15611d70578373ffffffffffffffffffffffffffffffffffffffff1663150b7a02611c3061100c565b8786866040518563ffffffff1660e01b8152600401611c529493929190612dbc565b602060405180830381600087803b158015611c6c57600080fd5b505af1925050508015611c9d57506040513d601f19601f82011682018060405250810190611c9a919061291f565b60015b611d20573d8060008114611ccd576040519150601f19603f3d011682016040523d82523d6000602084013e611cd2565b606091505b50600081511415611d18576040517f08c379a0000000000000000000000000000000000000000000000000000000008152600401611d0f90612ea7565b60405180910390fd5b805181602001fd5b63150b7a0260e01b7bffffffffffffffffffffffffffffffffffffffffffffffffffffffff1916817bffffffffffffffffffffffffffffffffffffffffffffffffffffffff191614915050611d75565b600190505b949350505050565b600080600090507a184f03e93ff9f4daa797ed6e38ed64bf6a1f0100000000000000008310611e01577a184f03e93ff9f4daa797ed6e38ed64bf6a1f0100000000000000008381611df7577f4e487b7100000000000000000000000000000000000000000000000000000000600052601260045260246000fd5b0492506040810190505b6d04ee2d6d415b85acef81000000008310611e64576d04ee2d6d415b85acef81000000008381611e5a577f4e487b7100000000000000000000000000000000000000000000000000000000600052601260045260246000fd5b0492506020810190505b662386f26fc100008310611eb957662386f26fc100008381611eaf577f4e487b7100000000000000000000000000000000000000000000000000000000600052601260045260246000fd5b0492506010810190505b6305f5e1008310611f08576305f5e1008381611efe577f4e487b7100000000000000000000000000000000000000000000000000000000600052601260045260246000fd5b0492506008810190505b6127108310611f53576127108381611f49577f4e487b7100000000000000000000000000000000000000000000000000000000600052601260045260246000fd5b0492506004810190505b60648310611f9c5760648381611f92577f4e487b7100000000000000000000000000000000000000000000000000000000600052601260045260246000fd5b0492506002810190505b600a8310611fab576001810190505b80915050919050565b50505050565b6008805490506009600083815260200190815260200160002081905550600881908060018154018082558091505060019003906000526020600020016000909190919091505550565b6000600161201084610b20565b61201a91906131c5565b90506000600760008481526020019081526020016000205490508181146120ff576000600660008673ffffffffffffffffffffffffffffffffffffffff1673ffffffffffffffffffffffffffffffffffffffff168152602001908152602001600020600084815260200190815260200160002054905080600660008773ffffffffffffffffffffffffffffffffffffffff1673ffffffffffffffffffffffffffffffffffffffff168152602001908152602001600020600084815260200190815260200160002081905550816007600083815260200190815260200160002081905550505b6007600084815260200190815260200160002060009055600660008573ffffffffffffffffffffffffffffffffffffffff1673ffffffffffffffffffffffffffffffffffffffff16815260200190815260200160002060008381526020019081526020016000206000905550505050565b6000600160088054905061218491906131c5565b90506000600960008481526020019081526020016000205490506000600883815481106121da577f4e487b7100000000000000000000000000000000000000000000000000000000600052603260045260246000fd5b906000526020600020015490508060088381548110612222577f4e487b7100000000000000000000000000000000000000000000000000000000600052603260045260246000fd5b906000526020600020018190555081600960008381526020019081526020016000208190555060096000858152602001908152602001600020600090556008805480612297577f4e487b7100000000000000000000000000000000000000000000000000000000600052603160045260246000fd5b6001900381819060005260206000200160009055905550505050565b60006122be83610b20565b905081600660008573ffffffffffffffffffffffffffffffffffffffff1673ffffffffffffffffffffffffffffffffffffffff168152602001908152602001600020600083815260200190815260200160002081905550806007600084815260200190815260200160002081905550505050565b600073ffffffffffffffffffffffffffffffffffffffff168273ffffffffffffffffffffffffffffffffffffffff1614156123a2576040517f08c379a000000000000000000000000000000000000000000000000000000000815260040161239990612f87565b60405180910390fd5b6123ab816117c4565b156123eb576040517f08c379a00000000000000000000000000000000000000000000000000000000081526004016123e290612f07565b60405180910390fd5b6123f9600083836001611a25565b612402816117c4565b15612442576040517f08c379a000000000000000000000000000000000000000000000000000000000815260040161243990612f07565b60405180910390fd5b6001600360008473ffffffffffffffffffffffffffffffffffffffff1673ffffffffffffffffffffffffffffffffffffffff16815260200190815260200160002060008282540192505081905550816002600083815260200190815260200160002060006101000a81548173ffffffffffffffffffffffffffffffffffffffff021916908373ffffffffffffffffffffffffffffffffffffffff160217905550808273ffffffffffffffffffffffffffffffffffffffff16600073ffffffffffffffffffffffffffffffffffffffff167fddf252ad1be2c89b69c2b068fc378daa952ba7f163c4a11628f55a4df523b3ef60405160405180910390a461254c600083836001611b85565b5050565b6000808273ffffffffffffffffffffffffffffffffffffffff163b119050919050565b82805461257f906132af565b90600052602060002090601f0160209004810192826125a157600085556125e8565b82601f106125ba57805160ff19168380011785556125e8565b828001600101855582156125e8579182015b828111156125e75782518255916020019190600101906125cc565b5b5090506125f591906125f9565b5090565b5b808211156126125760008160009055506001016125fa565b5090565b6000612629612624846130e7565b6130c2565b90508281526020810184848401111561264157600080fd5b61264c84828561326d565b509392505050565b600061266761266284613118565b6130c2565b90508281526020810184848401111561267f57600080fd5b61268a84828561326d565b509392505050565b6000813590506126a1816138a3565b92915050565b6000813590506126b6816138ba565b92915050565b6000813590506126cb816138d1565b92915050565b6000815190506126e0816138d1565b92915050565b600082601f8301126126f757600080fd5b8135612707848260208601612616565b91505092915050565b600082601f83011261272157600080fd5b8135612731848260208601612654565b91505092915050565b600081359050612749816138e8565b92915050565b60006020828403121561276157600080fd5b600061276f84828501612692565b91505092915050565b6000806040838503121561278b57600080fd5b600061279985828601612692565b92505060206127aa85828601612692565b9150509250929050565b6000806000606084860312156127c957600080fd5b60006127d786828701612692565b93505060206127e886828701612692565b92505060406127f98682870161273a565b9150509250925092565b6000806000806080858703121561281957600080fd5b600061282787828801612692565b945050602061283887828801612692565b93505060406128498782880161273a565b925050606085013567ffffffffffffffff81111561286657600080fd5b612872878288016126e6565b91505092959194509250565b6000806040838503121561289157600080fd5b600061289f85828601612692565b92505060206128b0858286016126a7565b9150509250929050565b600080604083850312156128cd57600080fd5b60006128db85828601612692565b92505060206128ec8582860161273a565b9150509250929050565b60006020828403121561290857600080fd5b6000612916848285016126bc565b91505092915050565b60006020828403121561293157600080fd5b600061293f848285016126d1565b91505092915050565b60006020828403121561295a57600080fd5b600082013567ffffffffffffffff81111561297457600080fd5b61298084828501612710565b91505092915050565b60006020828403121561299b57600080fd5b60006129a98482850161273a565b91505092915050565b60006129be8383612d5f565b60208301905092915050565b6129d3816131f9565b82525050565b60006129e482613159565b6129ee8185613187565b93506129f983613149565b8060005b83811015612a2a578151612a1188826129b2565b9750612a1c8361317a565b9250506001810190506129fd565b5085935050505092915050565b612a408161320b565b82525050565b6000612a5182613164565b612a5b8185613198565b9350612a6b81856020860161327c565b612a74816133e8565b840191505092915050565b6000612a8a8261316f565b612a9481856131a9565b9350612aa481856020860161327c565b612aad816133e8565b840191505092915050565b6000612ac38261316f565b612acd81856131ba565b9350612add81856020860161327c565b80840191505092915050565b6000612af6602d836131a9565b9150612b01826133f9565b604082019050919050565b6000612b19602b836131a9565b9150612b2482613448565b604082019050919050565b6000612b3c6032836131a9565b9150612b4782613497565b604082019050919050565b6000612b5f6026836131a9565b9150612b6a826134e6565b604082019050919050565b6000612b826025836131a9565b9150612b8d82613535565b604082019050919050565b6000612ba5601c836131a9565b9150612bb082613584565b602082019050919050565b6000612bc86024836131a9565b9150612bd3826135ad565b604082019050919050565b6000612beb6019836131a9565b9150612bf6826135fc565b602082019050919050565b6000612c0e6029836131a9565b9150612c1982613625565b604082019050919050565b6000612c316020836131a9565b9150612c3c82613674565b602082019050919050565b6000612c546020836131a9565b9150612c5f8261369d565b602082019050919050565b6000612c77602f836131a9565b9150612c82826136c6565b604082019050919050565b6000612c9a6018836131a9565b9150612ca582613715565b602082019050919050565b6000612cbd6021836131a9565b9150612cc88261373e565b604082019050919050565b6000612ce0603d836131a9565b9150612ceb8261378d565b604082019050919050565b6000612d036012836131a9565b9150612d0e826137dc565b602082019050919050565b6000612d26602c836131a9565b9150612d3182613805565b604082019050919050565b6000612d496035836131a9565b9150612d5482613854565b604082019050919050565b612d6881613263565b82525050565b612d7781613263565b82525050565b6000612d898285612ab8565b9150612d958284612ab8565b91508190509392505050565b6000602082019050612db660008301846129ca565b92915050565b6000608082019050612dd160008301876129ca565b612dde60208301866129ca565b612deb6040830185612d6e565b8181036060830152612dfd8184612a46565b905095945050505050565b60006020820190508181036000830152612e2281846129d9565b905092915050565b6000602082019050612e3f6000830184612a37565b92915050565b60006020820190508181036000830152612e5f8184612a7f565b905092915050565b60006020820190508181036000830152612e8081612ae9565b9050919050565b60006020820190508181036000830152612ea081612b0c565b9050919050565b60006020820190508181036000830152612ec081612b2f565b9050919050565b60006020820190508181036000830152612ee081612b52565b9050919050565b60006020820190508181036000830152612f0081612b75565b9050919050565b60006020820190508181036000830152612f2081612b98565b9050919050565b60006020820190508181036000830152612f4081612bbb565b9050919050565b60006020820190508181036000830152612f6081612bde565b9050919050565b60006020820190508181036000830152612f8081612c01565b9050919050565b60006020820190508181036000830152612fa081612c24565b9050919050565b60006020820190508181036000830152612fc081612c47565b9050919050565b60006020820190508181036000830152612fe081612c6a565b9050919050565b6000602082019050818103600083015261300081612c8d565b9050919050565b6000602082019050818103600083015261302081612cb0565b9050919050565b6000602082019050818103600083015261304081612cd3565b9050919050565b6000602082019050818103600083015261306081612cf6565b9050919050565b6000602082019050818103600083015261308081612d19565b9050919050565b600060208201905081810360008301526130a081612d3c565b9050919050565b60006020820190506130bc6000830184612d6e565b92915050565b60006130cc6130dd565b90506130d882826132e1565b919050565b6000604051905090565b600067ffffffffffffffff821115613102576131016133b9565b5b61310b826133e8565b9050602081019050919050565b600067ffffffffffffffff821115613133576131326133b9565b5b61313c826133e8565b9050602081019050919050565b6000819050602082019050919050565b600081519050919050565b600081519050919050565b600081519050919050565b6000602082019050919050565b600082825260208201905092915050565b600082825260208201905092915050565b600082825260208201905092915050565b600081905092915050565b60006131d082613263565b91506131db83613263565b9250828210156131ee576131ed61335b565b5b828203905092915050565b600061320482613243565b9050919050565b60008115159050919050565b60007fffffffff0000000000000000000000000000000000000000000000000000000082169050919050565b600073ffffffffffffffffffffffffffffffffffffffff82169050919050565b6000819050919050565b82818337600083830152505050565b60005b8381101561329a57808201518184015260208101905061327f565b838111156132a9576000848401525b50505050565b600060028204905060018216806132c757607f821691505b602082108114156132db576132da61338a565b5b50919050565b6132ea826133e8565b810181811067ffffffffffffffff82111715613309576133086133b9565b5b80604052505050565b600061331d82613263565b91507fffffffffffffffffffffffffffffffffffffffffffffffffffffffffffffffff8214156133505761334f61335b565b5b600182019050919050565b7f4e487b7100000000000000000000000000000000000000000000000000000000600052601160045260246000fd5b7f4e487b7100000000000000000000000000000000000000000000000000000000600052602260045260246000fd5b7f4e487b7100000000000000000000000000000000000000000000000000000000600052604160045260246000fd5b6000601f19601f8301169050919050565b7f4552433732313a2063616c6c6572206973206e6f7420746f6b656e206f776e6560008201527f72206f7220617070726f76656400000000000000000000000000000000000000602082015250565b7f455243373231456e756d657261626c653a206f776e657220696e646578206f7560008201527f74206f6620626f756e6473000000000000000000000000000000000000000000602082015250565b7f4552433732313a207472616e7366657220746f206e6f6e20455243373231526560008201527f63656976657220696d706c656d656e7465720000000000000000000000000000602082015250565b7f4f776e61626c653a206e6577206f776e657220697320746865207a65726f206160008201527f6464726573730000000000000000000000000000000000000000000000000000602082015250565b7f4552433732313a207472616e736665722066726f6d20696e636f72726563742060008201527f6f776e6572000000000000000000000000000000000000000000000000000000602082015250565b7f4552433732313a20746f6b656e20616c7265616479206d696e74656400000000600082015250565b7f4552433732313a207472616e7366657220746f20746865207a65726f2061646460008201527f7265737300000000000000000000000000000000000000000000000000000000602082015250565b7f4552433732313a20617070726f766520746f2063616c6c657200000000000000600082015250565b7f4552433732313a2061646472657373207a65726f206973206e6f74206120766160008201527f6c6964206f776e65720000000000000000000000000000000000000000000000602082015250565b7f4552433732313a206d696e7420746f20746865207a65726f2061646472657373600082015250565b7f4f776e61626c653a2063616c6c6572206973206e6f7420746865206f776e6572600082015250565b7f4552433732314d657461646174613a2055524920717565727920666f72206e6f60008201527f6e6578697374656e7420746f6b656e0000000000000000000000000000000000602082015250565b7f4552433732313a20696e76616c696420746f6b656e2049440000000000000000600082015250565b7f4552433732313a20617070726f76616c20746f2063757272656e74206f776e6560008201527f7200000000000000000000000000000000000000000000000000000000000000602082015250565b7f4552433732313a20617070726f76652063616c6c6572206973206e6f7420746f60008201527f6b656e206f776e6572206f7220617070726f76656420666f7220616c6c000000602082015250565b7f4d617820737570706c7920726561636865640000000000000000000000000000600082015250565b7f455243373231456e756d657261626c653a20676c6f62616c20696e646578206f60008201527f7574206f6620626f756e64730000000000000000000000000000000000000000602082015250565b7f455243373231456e756d657261626c653a20636f6e736563757469766520747260008201527f616e7366657273206e6f7420737570706f727465640000000000000000000000602082015250565b6138ac816131f9565b81146138b757600080fd5b50565b6138c38161320b565b81146138ce57600080fd5b50565b6138da81613217565b81146138e557600080fd5b50565b6138f181613263565b81146138fc57600080fd5b5056fea26469706673582212208c0c3c0df102244a55b165d5ab42154c1eae314bc95fccdbc093f4cfe883fcc964736f6c63430008040033",
  "linkReferences": {},
  "deployedLinkReferences": {}
}