{
  "_format": "hh-sol-artifact-1",
  "contractName": "NFTCollateralLoan",
  "sourceName": "contracts/NFTCollateralLoan.sol",
  "abi": [
    {
      "inputs": [
        {
          "internalType": "address",
          "name": "_collateralNFT",
          "type": "address"
        }
      ],
      "stateMutability": "payable",
      "type": "constructor"
    },
    {
      "anonymous": false,
      "inputs": [
        {
          "indexed": false,
          "internalType": "address",
          "name": "borrower",
          "type": "address"
        },
        {
          "indexed": false,
          "internalType": "uint256",
          "name": "tokenId",
          "type": "uint256"
        }
      ],
      "name": "LoanRepaid",
      "type": "event"
    },
    {
      "anonymous": false,
      "inputs": [
        {
          "indexed": false,
          "internalType": "address",
          "name": "borrower",
          "type": "address"
        },
        {
          "indexed": false,
          "internalType": "uint256",
          "name": "tokenId",
          "type": "uint256"
        },
        {
          "indexed": false,
          "internalType": "uint256",
          "name": "loanAmount",
          "type": "uint256"
        }
      ],
      "name": "LoanTaken",
      "type": "event"
    },
    {
      "inputs": [],
      "name": "LTV",
      "outputs": [
        {
          "internalType": "uint256",
          "name": "",
          "type": "uint256"
        }
      ],
      "stateMutability": "view",
      "type": "function"
    },
    {
      "inputs": [
        {
          "internalType": "uint256",
          "name": "",
          "type": "uint256"
        }
      ],
      "name": "allTokenIds",
      "outputs": [
        {
          "internalType": "uint256",
          "name": "",
          "type": "uint256"
        }
      ],
      "stateMutability": "view",
      "type": "function"
    },
    {
      "inputs": [],
      "name": "collateralNFT",
      "outputs": [
        {
          "internalType": "contract IERC721",
          "name": "",
          "type": "address"
        }
      ],
      "stateMutability": "view",
      "type": "function"
    },
    {
      "inputs": [],
      "name": "deposit",
      "outputs": [],
      "stateMutability": "payable",
      "type": "function"
    },
    {
      "inputs": [
        {
          "internalType": "address",
          "name": "borrower",
          "type": "address"
        }
      ],
      "name": "getLoansOfBorrower",
      "outputs": [
        {
          "components": [
            {
              "internalType": "address",
              "name": "borrower",
              "type": "address"
            },
            {
              "internalType": "uint256",
              "name": "loanAmount",
              "type": "uint256"
            },
            {
              "internalType": "bool",
              "name": "isRepaid",
              "type": "bool"
            },
            {
              "internalType": "uint256",
              "name": "tokenId",
              "type": "uint256"
            }
          ],
          "internalType": "struct NFTCollateralLoan.Loan[]",
          "name": "",
          "type": "tuple[]"
        }
      ],
      "stateMutability": "view",
      "type": "function"
    },
    {
      "inputs": [
        {
          "internalType": "uint256",
          "name": "tokenId",
          "type": "uint256"
        }
      ],
      "name": "getNFTValue",
      "outputs": [
        {
          "internalType": "uint256",
          "name": "",
          "type": "uint256"
        }
      ],
      "stateMutability": "pure",
      "type": "function"
    },
    {
      "inputs": [
        {
          "internalType": "uint256",
          "name": "",
          "type": "uint256"
        }
      ],
      "name": "loans",
      "outputs": [
        {
          "internalType": "address",
          "name": "borrower",
          "type": "address"
        },
        {
          "internalType": "uint256",
          "name": "loanAmount",
          "type": "uint256"
        },
        {
          "internalType": "bool",
          "name": "isRepaid",
          "type": "bool"
        },
        {
          "internalType": "uint256",
          "name": "tokenId",
          "type": "uint256"
        }
      ],
      "stateMutability": "view",
      "type": "function"
    },
    {
      "inputs": [
        {
          "internalType": "uint256",
          "name": "tokenId",
          "type": "uint256"
        }
      ],
      "name": "repayLoan",
      "outputs": [],
      "stateMutability": "payable",
      "type": "function"
    },
    {
      "inputs": [
        {
          "internalType": "uint256",
          "name": "tokenId",
          "type": "uint256"
        },
        {
          "internalType": "uint256",
          "name": "loanAmount",
          "type": "uint256"
        }
      ],
      "name": "takeLoan",
      "outputs": [],
      "stateMutability": "payable",
      "type": "function"
    }
  ],
  "bytecode": "0x60806040526040516200150538038062001505833981810160405281019062000029919062000088565b80600260006101000a81548173ffffffffffffffffffffffffffffffffffffffff021916908373ffffffffffffffffffffffffffffffffffffffff1602179055505062000102565b6000815190506200008281620000e8565b92915050565b6000602082840312156200009b57600080fd5b6000620000ab8482850162000071565b91505092915050565b6000620000c182620000c8565b9050919050565b600073ffffffffffffffffffffffffffffffffffffffff82169050919050565b620000f381620000b4565b8114620000ff57600080fd5b50565b6113f380620001126000396000f3fe6080604052600436106100865760003560e01c8063a318312511610059578063a31831251461015b578063ab7b1c8914610177578063d0e30db014610193578063e1ec3c681461019d578063f5962e2d146101dd57610086565b8063431ab0e31461008b578063591f776a146100b657806362965d8e146100f35780637d07b2d21461011e575b600080fd5b34801561009757600080fd5b506100a061021a565b6040516100ad9190610fde565b60405180910390f35b3480156100c257600080fd5b506100dd60048036038101906100d89190610c6f565b610240565b6040516100ea9190610fbc565b60405180910390f35b3480156100ff57600080fd5b5061010861068a565b6040516101159190611099565b60405180910390f35b34801561012a57600080fd5b5061014560048036038101906101409190610c98565b61068f565b6040516101529190611099565b60405180910390f35b61017560048036038101906101709190610cc1565b6106b3565b005b610191600480360381019061018c9190610c98565b610969565b005b61019b610b95565b005b3480156101a957600080fd5b506101c460048036038101906101bf9190610c98565b610b97565b6040516101d49493929190610f40565b60405180910390f35b3480156101e957600080fd5b5061020460048036038101906101ff9190610c98565b610bf4565b6040516102119190611099565b60405180910390f35b600260009054906101000a900473ffffffffffffffffffffffffffffffffffffffff1681565b60606000808054905067ffffffffffffffff811115610288577f4e487b7100000000000000000000000000000000000000000000000000000000600052604160045260246000fd5b6040519080825280602002602001820160405280156102c157816020015b6102ae610c05565b8152602001906001900390816102a65790505b5090506000805b60008054905081101561055c578473ffffffffffffffffffffffffffffffffffffffff1660016000808481548110610329577f4e487b7100000000000000000000000000000000000000000000000000000000600052603260045260246000fd5b9060005260206000200154815260200190815260200160002060000160009054906101000a900473ffffffffffffffffffffffffffffffffffffffff1673ffffffffffffffffffffffffffffffffffffffff16141561054957600160008083815481106103bf577f4e487b7100000000000000000000000000000000000000000000000000000000600052603260045260246000fd5b906000526020600020015481526020019081526020016000206040518060800160405290816000820160009054906101000a900473ffffffffffffffffffffffffffffffffffffffff1673ffffffffffffffffffffffffffffffffffffffff1673ffffffffffffffffffffffffffffffffffffffff168152602001600182015481526020016002820160009054906101000a900460ff161515151581526020016003820154815250508383815181106104a1577f4e487b7100000000000000000000000000000000000000000000000000000000600052603260045260246000fd5b6020026020010181905250600081815481106104e6577f4e487b7100000000000000000000000000000000000000000000000000000000600052603260045260246000fd5b906000526020600020015483838151811061052a577f4e487b7100000000000000000000000000000000000000000000000000000000600052603260045260246000fd5b602002602001015160600181815250508180610545906111f5565b9250505b8080610554906111f5565b9150506102c8565b5060008167ffffffffffffffff81111561059f577f4e487b7100000000000000000000000000000000000000000000000000000000600052604160045260246000fd5b6040519080825280602002602001820160405280156105d857816020015b6105c5610c05565b8152602001906001900390816105bd5790505b50905060005b8281101561067e5783818151811061061f577f4e487b7100000000000000000000000000000000000000000000000000000000600052603260045260246000fd5b6020026020010151828281518110610660577f4e487b7100000000000000000000000000000000000000000000000000000000600052603260045260246000fd5b60200260200101819052508080610676906111f5565b9150506105de565b50809350505050919050565b603281565b6000818154811061069f57600080fd5b906000526020600020016000915090505481565b600260009054906101000a900473ffffffffffffffffffffffffffffffffffffffff1673ffffffffffffffffffffffffffffffffffffffff166323b872dd3330856040518463ffffffff1660e01b815260040161071293929190610ee0565b600060405180830381600087803b15801561072c57600080fd5b505af1158015610740573d6000803e3d6000fd5b5050505060006064603261075385610bf4565b61075d919061112f565b61076791906110fe565b9050808211156107ac576040517f08c379a00000000000000000000000000000000000000000000000000000000081526004016107a390611079565b60405180910390fd5b814710156107ef576040517f08c379a00000000000000000000000000000000000000000000000000000000081526004016107e690611059565b60405180910390fd5b3373ffffffffffffffffffffffffffffffffffffffff166108fc839081150290604051600060405180830381858888f19350505050158015610835573d6000803e3d6000fd5b5060405180608001604052803373ffffffffffffffffffffffffffffffffffffffff168152602001838152602001600015158152602001848152506001600085815260200190815260200160002060008201518160000160006101000a81548173ffffffffffffffffffffffffffffffffffffffff021916908373ffffffffffffffffffffffffffffffffffffffff1602179055506020820151816001015560408201518160020160006101000a81548160ff0219169083151502179055506060820151816003015590505060008390806001815401808255809150506001900390600052602060002001600090919091909150557e6b9bb4766cf5ab74b890df959e4fad0e54b1c3885e49c9541d36253a6e39e633848460405161095c93929190610f85565b60405180910390a1505050565b60006001600083815260200190815260200160002090508060000160009054906101000a900473ffffffffffffffffffffffffffffffffffffffff1673ffffffffffffffffffffffffffffffffffffffff163373ffffffffffffffffffffffffffffffffffffffff1614610a12576040517f08c379a0000000000000000000000000000000000000000000000000000000008152600401610a0990611019565b60405180910390fd5b8060020160009054906101000a900460ff1615610a64576040517f08c379a0000000000000000000000000000000000000000000000000000000008152600401610a5b90611039565b60405180910390fd5b80600101543414610aaa576040517f08c379a0000000000000000000000000000000000000000000000000000000008152600401610aa190610ff9565b60405180910390fd5b600260009054906101000a900473ffffffffffffffffffffffffffffffffffffffff1673ffffffffffffffffffffffffffffffffffffffff166323b872dd3033856040518463ffffffff1660e01b8152600401610b0993929190610ee0565b600060405180830381600087803b158015610b2357600080fd5b505af1158015610b37573d6000803e3d6000fd5b5050505060018160020160006101000a81548160ff0219169083151502179055507fc200a1f31dd659e356e0f112c82558e25f49f7b0f84438691cd96f5cb35588233383604051610b89929190610f17565b60405180910390a15050565b565b60016020528060005260406000206000915090508060000160009054906101000a900473ffffffffffffffffffffffffffffffffffffffff16908060010154908060020160009054906101000a900460ff16908060030154905084565b6000662386f26fc100009050919050565b6040518060800160405280600073ffffffffffffffffffffffffffffffffffffffff16815260200160008152602001600015158152602001600081525090565b600081359050610c548161138f565b92915050565b600081359050610c69816113a6565b92915050565b600060208284031215610c8157600080fd5b6000610c8f84828501610c45565b91505092915050565b600060208284031215610caa57600080fd5b6000610cb884828501610c5a565b91505092915050565b60008060408385031215610cd457600080fd5b6000610ce285828601610c5a565b9250506020610cf385828601610c5a565b9150509250929050565b6000610d098383610e6d565b60808301905092915050565b610d1e81611189565b82525050565b610d2d81611189565b82525050565b6000610d3e826110c4565b610d4881856110dc565b9350610d53836110b4565b8060005b83811015610d84578151610d6b8882610cfd565b9750610d76836110cf565b925050600181019050610d57565b5085935050505092915050565b610d9a8161119b565b82525050565b610da98161119b565b82525050565b610db8816111d1565b82525050565b6000610dcb601b836110ed565b9150610dd68261129c565b602082019050919050565b6000610dee6024836110ed565b9150610df9826112c5565b604082019050919050565b6000610e116016836110ed565b9150610e1c82611314565b602082019050919050565b6000610e34601f836110ed565b9150610e3f8261133d565b602082019050919050565b6000610e576017836110ed565b9150610e6282611366565b602082019050919050565b608082016000820151610e836000850182610d15565b506020820151610e966020850182610ec2565b506040820151610ea96040850182610d91565b506060820151610ebc6060850182610ec2565b50505050565b610ecb816111c7565b82525050565b610eda816111c7565b82525050565b6000606082019050610ef56000830186610d24565b610f026020830185610d24565b610f0f6040830184610ed1565b949350505050565b6000604082019050610f2c6000830185610d24565b610f396020830184610ed1565b9392505050565b6000608082019050610f556000830187610d24565b610f626020830186610ed1565b610f6f6040830185610da0565b610f7c6060830184610ed1565b95945050505050565b6000606082019050610f9a6000830186610d24565b610fa76020830185610ed1565b610fb46040830184610ed1565b949350505050565b60006020820190508181036000830152610fd68184610d33565b905092915050565b6000602082019050610ff36000830184610daf565b92915050565b6000602082019050818103600083015261101281610dbe565b9050919050565b6000602082019050818103600083015261103281610de1565b9050919050565b6000602082019050818103600083015261105281610e04565b9050919050565b6000602082019050818103600083015261107281610e27565b9050919050565b6000602082019050818103600083015261109281610e4a565b9050919050565b60006020820190506110ae6000830184610ed1565b92915050565b6000819050602082019050919050565b600081519050919050565b6000602082019050919050565b600082825260208201905092915050565b600082825260208201905092915050565b6000611109826111c7565b9150611114836111c7565b9250826111245761112361126d565b5b828204905092915050565b600061113a826111c7565b9150611145836111c7565b9250817fffffffffffffffffffffffffffffffffffffffffffffffffffffffffffffffff048311821515161561117e5761117d61123e565b5b828202905092915050565b6000611194826111a7565b9050919050565b60008115159050919050565b600073ffffffffffffffffffffffffffffffffffffffff82169050919050565b6000819050919050565b60006111dc826111e3565b9050919050565b60006111ee826111a7565b9050919050565b6000611200826111c7565b91507fffffffffffffffffffffffffffffffffffffffffffffffffffffffffffffffff8214156112335761123261123e565b5b600182019050919050565b7f4e487b7100000000000000000000000000000000000000000000000000000000600052601160045260246000fd5b7f4e487b7100000000000000000000000000000000000000000000000000000000600052601260045260246000fd5b7f496e636f727265637420457468657220616d6f756e742073656e740000000000600082015250565b7f4f6e6c792074686520626f72726f7765722063616e207265706179207468652060008201527f6c6f616e00000000000000000000000000000000000000000000000000000000602082015250565b7f4c6f616e20697320616c72656164792072657061696400000000000000000000600082015250565b7f436f6e74726163742068617320696e73756666696369656e7420457468657200600082015250565b7f4c6f616e20616d6f756e742065786365656473204c5456000000000000000000600082015250565b61139881611189565b81146113a357600080fd5b50565b6113af816111c7565b81146113ba57600080fd5b5056fea2646970667358221220d4100b34e6546b8c916bf4b10084ce726bec3716d512ea48304172a4ae36d58e64736f6c63430008040033",
  "linkReferences": {},
  "deployedLinkReferences": {}
}